:1000000000800010890900007509000077090000D0
:10001000790900007B0900007D0900000000000054
:100020000000000000000000000000007F09000048
:10003000810900000000000083090000850900001C
:100040008709000087090000870900008709000070
:100050008709000087090000870900008709000060
:100060008709000087090000870900008709000050
:100070008709000087090000870900003D0800008B
:100080008709000087090000870900008709000030
:100090008709000087090000870900008709000020
:1000A0008709000087090000870900008709000010
:1000B0008709000087090000870900008709000000
:1000C00087090000870900008709000058420000E6
:1000D000000000100C0000005842000000C0072083
:1000E000000000000C0000101802000000C00720F3
:1000F0000000000080B400AF0A4B1B68094A23F0DF
:1001000030031360074B1B68064A23F0C0031360DB
:10011000054B1B68044A43F00403136000BFBD464F
:1001200080BC704700C0024000C0092080B582B08A
:1001300000AF03460A46FB711346BB71FB79BA79DF
:100140001946114801F000FABB79012B0AD10F4B77
:100150005B69FA79012101FA02F211460B4A0B435D
:1001600053610DE0BB79002B0AD1084B5B69FA792A
:10017000012101FA02F2D2431146044A0B405361B5
:1001800000BF0837BD4680BD483F000000C00920C1
:1001900080B586B000AFF860B9607A600023FB7468
:1001A00000237B61FFF7A6FF00210220FFF7BEFFBF
:1001B00000237B6102E07B6901337B617B69254A17
:1001C0009342F8DD01210220FFF7B0FF00237B619D
:1001D00002E07B6901337B617B691F4A9342F8DD52
:1001E0001E4B40229A6100F061FB422000F0B2F900
:1001F0000346FB74FB7C1946194801F0A5F9FB7C0A
:10020000122B01D0002320E000F0CEF8F86800F0B7
:10021000F3F800210E2000F0AFF900210F2000F0CC
:10022000ABF90C2000F096F9034643F00303DBB270
:1002300019460C2000F0A0F9B86800F0BDF8786805
:1002400000F026F900F0A8F8012318461837BD463B
:1002500080BD00BF9F8601007F96980000C00920E6
:100260005C3F000080B584B000AF78600023FB6085
:10027000122000F06FF90346BB607B68002B08DD9D
:1002800000F054F97B68DBB21946222000F074F9C3
:1002900001E000F037F9BB68DBB21946122000F02C
:1002A0006BF9BB6803F04003002B21D0BB6803F05F
:1002B0002003002B1CD1184B00221A60174B1B681F
:1002C000002B05D0222000F045F90346FB6004E036
:1002D000132000F03FF90346FB60102000F03AF9CC
:1002E000034619460D2000F047F900F055F80DE0DF
:1002F000012000F02FF90346862B07D000210D20A6
:1003000000F03AF98621012000F036F9FB68184622
:100310001037BD4680BD00BF0C000010100000105B
:1003200080B500AF1A2000F015F903461946054BB9
:100330001B68054A934201DCA42300E09D23CB1AED
:10034000184680BD14000010FFA0BC3380B500AF7C
:10035000132000F0FFF803461A46024B1B68D31A1D
:10036000184680BD0C00001080B500AFFFF7EEFF0F
:100370000346002B02D14FF0FF3308E0054B1B680A
:100380000133044A1360002000F0E4F803461846E5
:1003900080BD00BF0C00001080B500AF812101209E
:1003A00000F0EAF800BF80BD80B500AF80210120D9
:1003B00000F0E2F800BF80BD80B582B000AF786089
:1003C0007B68012B02DC02237B6004E07B68112B3D
:1003D00001DD11237B607B68DBB2023BDBB25BB2E9
:1003E00063F07F035BB2DBB21946092000F0C4F86A
:1003F00000BF0837BD4680BDF0B585B000AF78605E
:10040000204A7B6813601F4B1B681A4679681E4898
:1004100001F09AF87B684FEAE3745E13DD041B4A2F
:100420004FF000032846314603F0FAF803460C4625
:10043000C7E90234D7E902124FF000034FF000047D
:100440000B0C43EA0243140CDBB21946062000F001
:1004500093F8D7E902124FF000034FF000040B0AA3
:1004600043EA0263140ADBB21946072000F084F85D
:100470003B7A1946082000F07FF800BF1437BD46CC
:10048000F0BD00BF140000106C3F00000048E80100
:1004900080B582B000AF78607B68052B02DC062354
:1004A0007B6004E07B680C2B01DD0C237B607B68A8
:1004B000062B08D1C521312000F05EF80C21372031
:1004C00000F05AF807E0C321312000F055F80A2166
:1004D000372000F051F81E2000F03CF803465BB2D4
:1004E00003F00F035AB27B681B015BB213435BB28C
:1004F000DBB219461E2000F03FF800BF0837BD46AA
:1005000080BDFFFF80B500AF074B00221A601D20A1
:1005100000F020F8034623F00103DBB219461D204A
:1005200000F02AF800BF80BD1000001080B500AFB9
:10053000074B01221A601D2000F00CF8034643F01F
:100540000103DBB219461D2000F016F800BF80BD84
:100550001000001080B582B000AF0346FB71FB793C
:1005600003F07F03DBB20021184600F01BF80346BE
:1005700018460837BD4680BD80B582B000AF03463F
:100580000A46FB711346BB71FB7963F07F03DBB254
:10059000BA791146184600F005F800BF0837BD4685
:1005A00080BDFFFF80B584B000AF03460A46FB71F3
:1005B0001346BB710023FB730B4B4022DA61FB79BE
:1005C000184600F0BBF90346FB73BB79184600F0F0
:1005D000B5F90346FB73044B40229A61FB7B184636
:1005E0001037BD4680BD00BF00C0092080B584B073
:1005F00000AF0023BB6000237B6000233B60754B92
:100600001B681946744800F09FFF0023FB60734885
:1006100000F09AFF07F108031946714802F04EFBFB
:10062000704800F091FF3B1D19466F4802F046FBF1
:100630006E4800F089FF3B4619466B4802F03EFBCE
:10064000BB686B4A02FB03F379683A681846FFF708
:100650009FFD0020FFF706FE0246664B1A60654BC1
:100660001B68002BF5D00023FB60634800F06CFF93
:10067000A9E00023FB60FFF777FE03465AB25F4B09
:100680001A705E4B93F9003019465D4800F05CFF2C
:100690005A4B93F90030412B14D1574800F054FFC6
:1006A000564B93F900301946554800F04DFF554818
:1006B00000F04AFFFFF734FE03461946524800F0A7
:1006C00043FF80E04D4B93F90030422B14D14A4850
:1006D00000F03AFF494B93F900301946484800F0C2
:1006E00033FF484800F030FFFFF71AFE0346194673
:1006F000454800F029FF66E0404B93F90030432B5A
:1007000014D13D4800F020FF3C4B93F900301946CE
:100710003B4800F019FF3B4800F016FFFFF700FED2
:1007200003461946384800F00FFF4CE0334B93F96D
:100730000030442B14D1304800F006FF2F4B93F9C2
:10074000003019462E4800F0FFFE2E4800F0FCFE57
:10075000FFF7E6FD034619462B4800F0F5FE32E0B0
:10076000264B93F90030452B14D1234800F0ECFEC2
:10077000224B93F900301946214800F0E5FE21484C
:1007800000F0E2FEFFF7CCFD034619461E4800F0DC
:10079000DBFE18E0194B93F90030462B13D11648B5
:1007A00000F0D2FE154B93F900301946144800F0C2
:1007B000CBFE144800F0C8FEFFF7B2FD0346194611
:1007C000114800F0C1FEFFF7C1FD0346002B7FF486
:1007D00050AF3EE700000010803F0000943F000053
:1007E000C83F0000CC3F0000F03F0000F43F000095
:1007F00040420F00200200102040000019000010AD
:1008000034400000384000004840000080B483B00D
:1008100000AF0346FB71FB7903F01F03012202FACC
:1008200003F1054A97F907305B0942F8231000BF2E
:100830000C37BD4680BC704700E100E080B483B057
:1008400000AF164BDB697B607B6803F00103002B74
:1008500007D0134B1B680133114A13600F4B012261
:100860001A627B6803F00203002B07D00D4B1B6854
:1008700001330C4A1360094B02221A627B6803F0B1
:100880000403002B05D0084B1B680133064A136094
:1008900000BF00BF0C37BD4680BC7047000003405E
:1008A0002C000010300000102800001080B500AFB0
:1008B0001E4B1E4AD3F8C430C2F8C4301B4BD3F8C9
:1008C000A8311A4A43F44013C2F8A831184B1B68E8
:1008D000174A23F47F231360154B1B68144A43F413
:1008E0002A231360124B1B68114A23F440531360F0
:1008F000104B1B680F4A43F0400313600E4B40F24D
:1009000007721A600C4B02221A610F20FFF77EFF5C
:10091000094B5B68084A23F004035360064B02222C
:100920005A60054B03225A6100BF80BD00C00F40D2
:1009300000C0024000C009200000034080B485B020
:1009400000AF0346FB710023FB73094AFB799360F8
:1009500000BF074BDB6803F01003002BF9D1044BF9
:100960009B68FB73FB7B18461437BD4680BC704701
:1009700000000340FEE7FEE7FEE7FEE7FEE7FEE7D6
:10098000FEE7FEE7FEE7FEE708B50C4A0C4B0D4913
:100990008B420DD30C480D494FF000028842B8BF7E
:1009A00040F8042BFADB00F013F800F07FF8FEE7C4
:1009B00052F8040B43F8040BEAE700BF584200006A
:1009C000000000100C0000100C00001024020010A9
:1009D0002022334BC3F8A021D3F8A0215206FBD527
:1009E0000322C3F8042100220120C3F8A821C3F880
:1009F000AC212C4AC3F80C01AA21C3F8842055224B
:100A0000C3F88C10C3F88C20C3F88000C3F88C1096
:100A1000C3F88C20224A1346D2F888104801FBD52F
:100A20000321C2F88010AA21C2F88C105521C2F807
:100A30008C10D3F8882012F0407FFAD02322AA210C
:100A4000C3F8A42001205522C3F8AC10C3F8AC2091
:100A5000C3F8A000C3F8AC10C3F8AC20104A13468A
:100A6000D2F8A8104905FBD50321C2F8A010AA218D
:100A7000C2F8AC105521C2F8AC10D3F8A82012F47B
:100A8000407FFAD0084AC3F8C4200022C3F8C82126
:100A90001A6822F4704242F480421A60704700BF24
:100AA00000C00F4063000500DE87280408B500F091
:100AB00075FDBDE80840FFF799BD10B5425C4318CD
:100AC000342A01DC002010BD352A06D1194611F860
:100AD000012F302AFBD0002AF4D01A46302412F815
:100AE000011D392901D11470F9E701311170027823
:100AF000302AE7D01A1A002A01DA0120E3E713F8B6
:100B000001299A70F6E730B50A258C1FA14200D161
:100B100030BD90FBF5F3C3EB4312C3EB82023030E0
:100B200000EB420001F801091846EFE70EB430B5BA
:100B300094B017AB53F8044B05463C22002105A89E
:100B4000049302F02AF90A2308936FF000430793F5
:100B5000104B4FF0FF320293049B05A8CDE90043F0
:100B60006FF00043059500F055FD079B0446013BDF
:100B7000002B079308DB0022059B1A70204614B057
:100B8000BDE8304003B0704705A9002002F0F4F939
:100B9000F4E700BF990B00002DE9F04FD1E90065A3
:100BA0009DB0069347F6F07333EA1543059014465B
:100BB000DDF89CA00C96079528D10023E370C5F3BF
:100BC000130333434FF06E031AD169226370662317
:100BD000002D2270A37007DAAB4B0325269A136011
:100BE00028461DB0BDE8F08F069B9C0706D4A74A97
:100BF00013F0040FA64B08BF1346EEE7A54BECE736
:100C000061222370A3706270A04BE6E7059B23F07E
:100C10002003412B00F0B5820022002330462946F4
:100C200003F0C1F8002842D005F100430C9A1D469C
:100C3000012316460993002200233046294603F07B
:100C40009DF8002840F09782294640F22D150FAA02
:100C5000304602F08EFA4FF47A730F9ACDE9100104
:100C60005543A5F5AB5BABF11C0B9BFBF3FB0020E5
:100C7000ABEB0202884902F0A7FA41F294139D42BD
:100C8000CDE91A0115DC7AA3D3E90023CDE91623B7
:100C9000CBF10005EDB1E80711D4DDE91601DDE97E
:100CA000162302F079FD6D10CDE91601F3E70990E6
:100CB000C1E70022794B5D46CDE91623EAE7DDE97D
:100CC0001601DDE91A2302F067FD012DCDE91A01B5
:100CD000E3D1DDE91001DDE91A230FF29C19D9E90E
:100CE000008902F0DFFD0026CDE912016C4FDDE93D
:100CF000120142464B4603F056F8002840F092801D
:100D00000FF27C19D9E900890026654FDDE912014F
:100D100042464B4603F099F8002840F09680DDE902
:100D2000120102F0DFFF05468BEAEB73A3EBEB73D6
:100D30000D930F9A2846ABEB020603F016F83246E5
:100D400002F042FA00220023BBF1000FCDE91201AC
:100D5000CDE9142380F2A68045A1D1E90001CDE9B7
:100D60001601CDE91823DDE91689DDE916014FF0FA
:100D70000008DDE9186742464B4602F033FE324672
:100D80003B4602F003FFCDE91801CDE91689DDE904
:100D900016010022414B02F0FFFC02460B460020E8
:100DA0003D4902F01FFE00223C4B02F07BFDCDE9E5
:100DB00018010D9B0893089BD90700F18A80DDE993
:100DC0001623DDE91889DDE918671046194602F097
:100DD000DDFE42464B4602F0D9FE32463B4602F06B
:100DE000DBFCCDE91801DDE91601DDE9162302F08F
:100DF000D3FCCDE91601DDE91689DDE916014FF0D6
:100E00000008DDE9186742464B4602F0EBFD3B4621
:100E1000324602F0BBFE089BCDE918015B10CDE91C
:100E20001689C7E7DDE9120132463B4602F0B4FC01
:100E3000CDE91201DDE91A0132463B4602F032FDEE
:100E40000BF1FF3BCDE91A0151E7DDE91201324612
:100E50003B4602F027FDCDE91201DDE91A013246D9
:100E60003B4602F099FC0BF1010BCDE91A014DE76D
:100E70009A9999999999C93F00000000006AF84031
:100E80000000000080842E4182400000D04000001D
:100E900052400000504000000000F03F00001440AD
:100EA000000024404FF00002BF4BCDE916234FF065
:100EB00000024FF00003CDE918237FF47AAFDDE99B
:100EC0001201DDE9102302F097FF002844D1013D13
:100ED0002FE7DDE91223DDE91889CDE90A23DDE9F1
:100EE0001601DDE9182302F051FEDDE914673246F0
:100EF0003B4602F051FC424606460F46DDE90A0138
:100F00004B4602F049FC02460B463046394602F099
:100F10003DFECDE91401DDE91601DDE9122302F001
:100F20003BFCCDE91201DDE91289DDE912014FF048
:100F30000008DDE9146742464B4602F053FD3B468C
:100F4000324602F023FE089BCDE91401012BCDE9C6
:100F500012897FF434AFB2E7DDE91223DDE9100135
:100F600002F040FDCDE91001DDE91423DDE91001B7
:100F700002F038FDCDE91001DDE91A23DDE91001A9
:100F800002F090FC86A3D3E90023CDE91001DDE94E
:100F9000100102F001FCCDE91001DDE9100102F0C1
:100FA000A1FEDDE91067804602F0DFFE02460B4637
:100FB0003046394602F016FD79A3D3E9002302F04A
:100FC000EBFBCDE91001DDE9100102F08BFE0646D6
:100FD000002EC0F29C80754B9E4200F39F80B8F1BA
:100FE000000FC0F2A280714B984500F3A480704AB4
:100FF000954200F3A6806F4B0A21B8FBF3F2B6FBD3
:10100000F3F36D4801FB052500FB028800FB036636
:1010100001FB08384E430BF1FF3B214630272846A1
:1010200001F8067BFFF76FFD04F10C014046FFF766
:101030006AFD04F112013046FFF765FD00232375B8
:10104000099B0BF1050BE77443EA8B0B002B00F0B7
:101050009A805A4B269A3BF0010B1360059B48BFC0
:101060000BF1030B612B4FEAAB0BDAF8005000F0E9
:10107000358100F3AD80452B00F0B480472B04D0C0
:10108000412B00F02B8167230593069B002D43F431
:1010900000630693DCBF0123CAF80030DAF80010C1
:1010A00020461129A8BF11210131FFF706FDDAF80A
:1010B000003083445B4540F3FB811BF1040FC0F219
:1010C000F7810BF101029B1ACAF80030069ABBF1B6
:1010D000000FDAF8003002F4006680F27481CBF180
:1010E00000075A1CBA4280F23781302323702E2326
:1010F00002256370DAF80030299A1360299B1B6877
:10110000002B40F384813E23635501357FE106F5D2
:10111000742606F5107608F1FF3859E7A6F574260F
:10112000A6F5107608F1010856E708F5742808F5C9
:101130001078013D53E7A8F57428A8F5107801351B
:1011400052E79D427FF769AF0A226FF0090395FBD2
:10115000F2F103FB01551A480BF1010B00FB058569
:1011600095FBF2F803FB085300FB0366053696FB7C
:10117000F2F60D4651E700266FF0040BB0463546F7
:101180004BE74FF0000B069B9A0706D40D4A13F06D
:10119000040F0D4B08BF13465CE70C4B5AE700BF2A
:1011A0000000000080842E41000014403F420F00E8
:1011B0009F860100A08601006079FEFF824000004A
:1011C00040420F00D040000052400000504000005C
:1011D000059B662B3FF47AAF672B3FF456AF652B28
:1011E0007FF451AFDAF80030112B05DD299A113B5D
:1011F00013601123CAF80030069BDAF8005013F48C
:10120000006605F1020504D129462046FFF755FC8A
:10121000834463782370069BDAF8002023F4FE638E
:1012200023F007031B051B0D13431CBF2E23637004
:10123000299B08BF01251B68002BC2BF3E236355B5
:10124000013576B1069B1B070BD46219151B12F8EA
:10125000013D302BFAD03E2BF8D02E2B08BF05F1E4
:10126000FF35BBF1000FB4BF2D212B21059BB8BF6B
:10127000CBF1000B6A1CBBF57A7F635505F10203C5
:10128000A1540ADB4FF47A72BBFBF2F202F1300197
:10129000E1548B4B03FB02BBEB1CBBF1630F0ADD7C
:1012A00064229BFBF2F202F13001E1546FF0630122
:1012B00001FB02BB01330A229BFBF2F2D2B202F124
:1012C0003001E1549D1C1C44C2EB42130BF1300B66
:1012D000C2EB83020BEB4202627081E4079B0C9825
:1012E000C3F30A56C3F31301F6B1A6F2FF33069A0D
:1012F00002F008022A431DD172487349059D002E51
:101300000CBF30223122612D08BF01462046FFF775
:101310000DFC6E4A6E4B0799054633EA210328BF40
:101320001346269A13605BE450EA0103694B08BF39
:101330000023DCE7CDE90001029367482B466749AB
:10134000059D002E0CBF30223122612D08BF0146C1
:101350002046FFF7EBFBDCE75B449D1C122DC1BF71
:10136000299A113B1360132576B929462046FFF7C9
:10137000A4FB48B17FEA0B0705F1010504D16378AE
:1013800023702E236370B9E6012F04EB05030CD103
:101390001A1B002A02DC01353023F1E713F801297A
:1013A0009A70F5E713F80129DA701A1B002AF9DCA4
:1013B000302323702E2363703C23A370289B013FAE
:1013C00002351F609AE60BEB0307BD1C122D53DD9F
:1013D0009EBB13212046FFF770FB70B314250BF161
:1013E000010B6B1E5B452ADD631E04EB0B02997833
:1013F00003F8011F9A42FAD12E235370DAF8003015
:10140000299A5B44113B1360002B7FF47CAE069B52
:1014100003F00803002E45D0002B7FF4E1AB6219E6
:10142000151B12F8013D302BFAD03E2BF8D02E2B95
:101430007FF4D6AB013DFFF7D3BB1325D1E7631C87
:10144000621913F8011B9A4203F8021CF9D13C23DC
:10145000ABEB050B02F8013C289A0BF10203136079
:101460002E226255DAF800206B1CCAB12999023588
:101470000A603E22E254CAE73EB929462046FFF7F9
:101480001CFB10B10BF1010BFD1C631EA3449A78E9
:1014900003F8012F9B45FAD12E238BF80130B6E7D4
:1014A0001D46B4E7DAF8002013437FF499ABC1E797
:1014B000013BCAF80030059B023B059392E600BF52
:1014C00018FCFFFF544000005C4000008240000018
:1014D000D040000001FCFFFF6440000073400000AA
:1014E000F0B50D4695B016461F46044610B931BBFF
:1014F000012504AC3C22002105A801F04EFC0A2382
:1015000008936FF000430594002407930D4B6A1E67
:10151000CDE901730096234605A800F07BF8079BF0
:101520000546013BA342079304DB059B1C7028463C
:1015300015B0F0BD05A9204601F01EFDF7E74FF0FC
:10154000FF35F4E7990B00000FB473B506AB53F801
:10155000046B0121324668460193FFF7C1FF041E68
:1015600013DD651C284601F089FE009068B1019BDF
:1015700032462946FFF7B4FF074B22460099186D03
:1015800002F0DCFC009801F0DDFE204602B0BDE870
:10159000704004B0704700BF4000001010B5174AFB
:1015A0001749002001F088FD4FF480734FF48062EA
:1015B0000021124801F092FB124A1349012001F068
:1015C0007BFD4FF480734FF4806200210D4801F0E1
:1015D00085FB0E4B1B68022B0EDD0D4A0A490220CB
:1015E00001F06AFDBDE810404FF480734FF4806253
:1015F0000021074801F072BB10BD00BF4000001081
:10160000844000007C00001086400000544200002E
:10161000B80000102DE9F04F9FB0CDE90A23002358
:101620000546DDF8A4B00C93DDF8A08018F8010B96
:1016300018B90C981FB0BDE8F08F25281AD0DDE945
:101640000A670C9B1946DA175C1C1346B142BB4172
:1016500008DAAB68013B002BAB6007DB2B685A1C38
:101660002A6018700C94CDF8A080DDE7294601F0BF
:1016700083FCF7E700240AE02D2F04D0302F11D18E
:1016800044F4007401E044F00104DDF81C8043469A
:1016900013F8017B2B2F079314D0EDD8202F14D0F3
:1016A000232F15D02A2F16D000230A21A7F13002AC
:1016B000D0B209281DD801FB0323079A12F8017B39
:1016C0000792F3E744F00204DFE744F00404DCE7A8
:1016D00044F00804D9E75E4656F8043B079AB3463F
:1016E000002B177808F10202BCBF5B4284F00104B2
:1016F00007922E2F23EAE3793DD1079B1F782A2FEB
:1017000010D04FF000080A2201330793A7F13003ED
:10171000D9B209290ED802FB0838079B13F8017BC0
:101720000793F3E75E4656F8048B079BB3465F7852
:1017300002330793B8F1000F1DDB44F010046C2F47
:101740000ED1079B1F786C2F15BF079B5F78013365
:10175000023307BF44F060040793079344F020046A
:101760004C2F01D0712F09D1079B44F0600413F86E
:10177000017B079312E04FF00008E0E7682F62D189
:10178000079B1F78682F04D15F7844F4807402337C
:10179000EFE7079B44F0800401330793672F00F3C2
:1017A000AB80652F80F20A83472F00F0078357DC58
:1017B000412F00F0FD82452F00F00083002F00F044
:1017C0003B8114F0010609F1FF3A0FD10C9B14F490
:1017D000007F14BF3024202498464FEAE3790C9B05
:1017E000BAF1010A03F1010340F1EC800C9B1946A8
:1017F000DA175C1C13460A46DDE90A0182428B4176
:1018000009DAAB68013B002BAB60C0F2F7802B68B4
:101810005A1C2A601F70002E00F0E1842646D04634
:101820004FF02009E717B8F1010840F1EC8023469A
:10183000BAF1000FA8BF53440C935E46B3460C9C0C
:10184000DDF81C800EE76A2F05D144F04004079BA9
:1018500013F8017B8DE77A2FF9D0742F9ED1F6E72C
:10186000612F00F0A58221DC582FAAD1610640F13A
:1018700052810BF1070626F00706F6E80223CDE9B0
:10188000042314F0800100F04E810023BDF81010F5
:1018900005930491A84914F0080FA84808BF08460A
:1018A000E30601D524F40074A54986E1632F00F016
:1018B0008480642F85D1660640F166820BF10706AD
:1018C00026F00706F6E80223200640F1628212B2F3
:1018D000D317002A73F1000180F26082524263EB59
:1018E0004303CDE90423974814F0100100F065810B
:1018F00024F40074002160E1702F00F0558106DCB3
:101900006E2F00F09D8000F3EC81692FD2E7752FD8
:1019100000F01082782F00F01981732F7FF451AFFF
:101920005E46894B56F804ABBAF1000F08BF9A46E1
:10193000504601F0F3F98346E00602D5C345A8BF3F
:10194000C34614F00103A9EB0B07049313D10C9ABF
:1019500014F4007F14BF3023202390463C464FEA06
:10196000E279013C40F184800C9A27EAE7731A443B
:10197000013F0C92FF1A0C9B002498464FEAE37932
:101980005C45C0F290800C9BBBF1000FA8BF5B448C
:101990000C93049B002B3FF451AF0C9B3C469846A4
:1019A0004FF0200A4FEAE379013C40F19A800C9B0A
:1019B000002FA8BFDB190C9340E75E4656F8047B66
:1019C000B346FEE6DDE90A12884579EB020208DA41
:1019D000AA68013A002AAA6009DB2A68511C29601A
:1019E000147018F1010849F100090C93F7E6294633
:1019F0002046049301F0C0FA049BF2E729463846DA
:101A000001F0BAFA07E7DDE90A23964277EB030310
:101A100009DAAB68013B002BAB6008DB2B685A1C72
:101A20002A6083F80090013647F10007FBE629465B
:101A3000202001F0A1FAF6E7079B013B0793FCE6A3
:101A400060060BF10406DBF800300C9A04D5104652
:101A5000D117C3E90001F1E6A10601D51A60EDE650
:101A6000E70501D51A70E9E62406F7D51A80E5E600
:101A7000DDE90A12884579EB020208DAAA68013A20
:101A8000002AAA6008DB2A68511C2960137018F12B
:101A9000010849F1000964E718462946089301F056
:101AA0006BFA089BF3E7DDE90A23904579EB030322
:101AB0000ADAAB68013B002BAB600CDB2B685A1CCD
:101AC0002A601AF804201A7018F1010804F10104C0
:101AD00049F1000954E729461AF8040001F04CFACC
:101AE000F2E7DDE90A23904579EB030309DAAB68F5
:101AF000013B002BAB6009DB2B685A1C2A6083F882
:101B000000A018F1010849F100094DE729462020FD
:101B100001F032FAF5E75E4656F8042B0021104634
:101B2000CDE90401ADE6E2057FF5B4AE049B03F018
:101B3000FF00CDE90401ADE6D04000008F40000079
:101B400097400000824000008840000061061BD5DD
:101B50000BF1070626F00706F6E80223CDE9042379
:101B600014F0800118D00023BDF8101005930491E3
:101B7000AD4914F0080FAD4808BF0846E30601D58B
:101B800024F40074AA4918E05E4656F8042B00219C
:101B90001046CDE90401E3E7E205E9D5049B03F033
:101BA000FF00CDE90401E3E75E4656F8042B00216F
:101BB0001046CDE904019E499C48CDE91080DDE93D
:101BC0000AAB4FF0FF300DF1580CCDE91200E6469C
:101BD00000204FF055080C9BBAEB030A6BEBE37B3C
:101BE000CDE908AB013020280EF8018BFAD114F4AE
:101BF000826F04BF01201090672F00F32181652FB1
:101C000080F2AB81472F00F0A88100F3ED80412FD7
:101C100000F0A381452F00F0A081002714F4806319
:101C20000D9300F0AA8100231093129B002BC4BFD8
:101C300003F1FF331093139B002B03DD109A013B3C
:101C400013441093109B119807EB030A01F066F8F8
:101C5000A9EB0A0AAAEB0003049304F001030E9314
:101C600040F201231C4200F0B2814FF0000AD0463E
:101C70004FEAEA79119B5A1C119293F800B0BBF11C
:101C8000000F40F0AE810E9B93B914F4007F14BF97
:101C900030232023D046049C4FEAEA79013C40F1EE
:101CA000BC81049B5A1E23EAE373D21A04929A441D
:101CB0000D9B002B00F0CC8130245F4500F3DE81CA
:101CC0000E9B5BB1D0462027049C4FEAEA79013C89
:101CD00040F16C82049B002BA8BF9A440C9B534498
:101CE00069E6660616D50BF1070626F00706F6E844
:101CF0000223CDE9042314F0800113D00023BDF8A2
:101D00001010059304914B4814F0080F464908BF82
:101D10000846E9E55E4656F8042B00211046CDE959
:101D20000401E8E7E005EED5049B03F0FF00CDE9F0
:101D30000401E8E7620617D50BF1070626F007064F
:101D4000F6E80223CDE9042314F0800114D0002327
:101D5000BDF810100593049114F0100102D0002179
:101D600024F40074304828E75E4656F8042B00211E
:101D70001046CDE90401E7E7E305EDD5049B03F048
:101D8000FF00CDE90401E7E75E4656F8042BD317C0
:101D90009AE5E1057FF59DAD52B299E5CDE90423C1
:101DA000A20703D414F0040F2348AFE723489BE5B0
:101DB000E3065CBF4FF00D0844F010040BF107067A
:101DC00026F00706F6E802230021CDE914230022BD
:101DD000002314F0100F08BF4FF0060844F480648D
:101DE000CDE904230846E8E6612F00F0B680642FB1
:101DF00000F0AF80582F4FF000077FF40FAFDDE900
:101E0000042313433FF40AAF049B013703F00F0090
:101E1000085C0CF8010B1809059B40EA03704FEAB7
:101E2000131ECDE9040EEAE7D04000009240000006
:101E3000A8400000954000005240000050400000C3
:101E4000702F20D01BDC692F00F083806F2F4FF0A4
:101E500000077FF4E3AEDDE9042313433FF4DEAE75
:101E6000049B013703F0070130310CF8011BD9083E
:101E7000059B41EA4371D808CDE90410EBE7752FC3
:101E800067D0782FB7E70027B9E7049B049A590871
:101E9000059B30324FEA530E41EAC371049B013770
:101EA0004FEA9308059B48EA837811EB08014FEA53
:101EB00093004EEB00004FEA111848EA007811EB4E
:101EC00008014FEA101E40EB0E004FEA112848EAC5
:101ED000006811EB08014FEA102E40EB0E004FEAAC
:101EE000114E4EEA004E11EB0E014FF0000E4FEA7C
:101EF000104840EB0800091840EB0E004FEAD10EE5
:101F00004EEA407E4FEAD008AEFB0B01049B0BFB70
:101F1000081113F1060A059B43F10003BAEB000A0E
:101F200063EB01004FEA1A1343EA007313EB0E0E42
:101F30004FEA101141EB08080EEB8E03CDE904E8DF
:101F4000A2EB43020CF8012BDDE9042313439CD1DF
:101F500064E600274FF00A0BF6E713AB039312ABCE
:101F6000029310AB019311AB0093384623462A9F8E
:101F700016AA14A9B847074650E6109B0D9ADB1B1A
:101F800048BF13465DE6DDE90823904579EB03037E
:101F900009DAAB68013B002BAB6013DB2B685A1CE2
:101FA0002A6083F800A018F1010849F10009ABEBA1
:101FB0000803002BE7DA049B23EAE37AABEB0A037E
:101FC000049354E62946202000F0D6FFEBE7049B5B
:101FD0004FF000084FF0000903F1FF3B4FF0200ADB
:101FE000E5E7DDE90823904579EB03030AF1010AEF
:101FF00009DAAB68013B002BAB6009DB2B685A1C8C
:102000002A6083F800B018F1010849F1000931E6AF
:102010002946584600F0B0FFF5E7DDE9081288458B
:1020200079EB020208DAAA68013A002AAA6008DB02
:102030002A68511C2960137018F1010849F1000940
:102040002CE6184629460F9300F096FF0F9BF3E706
:10205000D04630244FEAEA79109B013B002B1093C5
:102060006EDAD0463B464FEAEA79002B03F1FF34A3
:1020700000F38180002FA8BFBA4421E616AB13F805
:102080000B00D0463C284FEAEA7931D03E2841D1B6
:10209000139B013B002B13932FDBDDE908239045B5
:1020A00079EB03030AF1010A08DAAB68013B002B64
:1020B000AB602ADB2B685A1C2A601C7018F10108DF
:1020C00049F10009E4E7DDE90823904579EB0303D2
:1020D0000AF1010A08DAAB68013B002BAB600FDBA9
:1020E0002B685A1C2A601C7018F1010849F100097C
:1020F000129B013B002B1293E5DA0BF1010BDCE59F
:102100002946302000F038FFEEE72946302000F065
:1021100033FFD3E7DDE90823904579EB03030AF1A8
:10212000010AEADAAB68013B002BAB6004DB2B68E9
:102130005A1C2A601870E0E7294600F01DFFDCE712
:10214000DDE90823904579EB03030AF1010A08DA77
:10215000AB68013B002BAB6008DB2B685A1C2A6084
:102160001C7018F1010849F1000975E72946302073
:1021700000F002FFF5E7DDE90823904579EB030362
:102180000ADAAB6816AA013B002BAB60105D09DBD5
:102190002B685A1C2A60187018F1010849F10009CF
:1021A000234662E7294600F0E7FEF5E7DDE908236C
:1021B000904579EB030308DAAB68013B002BAB6079
:1021C00008DB2B685A1C2A601F7018F1010849F1BE
:1021D00000097CE52946202000F0CEFEF5E75E46AA
:1021E0000C94FFF72BBB00BF0A4B034493F88030DD
:1021F0009A0605D530388842A8BF4FF0FF307047A7
:102200001A0701D55738F6E7DB064CBF37384FF0D1
:10221000FF30F0E7D14000002DE9F74F044691462A
:1022200098464FF0FF35DDF830A0654F00916168AA
:102230006A1C01390029616057DB2168481C206055
:102240000E78B91991F88010C8074CD4711C00F0B1
:10225000B280BAF1000F66DD19F0200F14D02B2EDA
:1022600003D02D2E10D149F4007962680235013A6D
:10227000002A626040DB2268511C21601678BAF1A6
:10228000010B52D02A46DA46302E4CD1616849F40F
:102290008077013900290AF1FF3B02F101056160F5
:1022A0002FDB2168481C20600E78BBF1000F34D072
:1022B00026F02001582930D138F010030FD163687F
:1022C000AAF1020B013B002B02F1020563601FDB48
:1022D00023685A1C22601E784F464FF010084FF0BA
:1022E0000009AB4437E01546A1E72046019200F013
:1022F00067FD019A0646A4E7204600F061FD064608
:10230000BDE72046019200F05BFD019A0646CCE74E
:10231000204600F055FD0646DEE7B8F1000F08BF85
:102320004FF00808DBE71546D346B8F1000F4F46DB
:1023300008BF4FF00A08D2E7636847F48077013B93
:10234000002B09FB080905F1010563602BDB2368FD
:102350005A1C22601E78ABEB0503002B05DD4146BD
:102360003046FFF741FF0028E6DA2146304600F00C
:10237000FBFCFB0521D5FE0711D4009BBC061B68A6
:1023800007F0040203F1040103D5B80548BFC9F101
:102390000009009801601B6852B1A3F8009028461C
:1023A00003B0BDE8F08F204600F00AFD0646D2E7F4
:1023B000C3F80090F3E73546F1E76FF00105EEE76B
:1023C000D1400000FFFFFFFF00232DE9F04F04463E
:1023D0009BB0CDE902330F928B461BF8015B002DB9
:1023E0004DD0252DB84F4ED07A1992F880206368D1
:1023F000D20703F1FF3326D55A4612F8013B3B447E
:1024000093F88030DE0714D46368013B002B6360CF
:1024100015DB23685A1C226018783B1893F880302B
:10242000DD0708D4214600F09FFC029D0295594625
:10243000D2E79346E0E7029B01330293E4E72046AC
:1024400000F0BEFCE9E7002B636008DB23685A1C40
:1024500022601E78AE4207D1029D0135E6E7204694
:1024600000F0AEFC0646F5E73046214600F07CFC65
:10247000013604D1039B13B94FF0FF330393039844
:102480001BB0BDE8F08F4B784FF000082A2B06BF39
:1024900001F1020B4FF0010A4FF0000A5B460A21DE
:1024A0008A4A1BF8015B781990F88000800630D4C6
:1024B0001AF0080F08BF6FF000486C2D34D19BF85C
:1024C00000504AF0020A03F1020B672D00F3A280CC
:1024D000652D80F23C81582D00F0B68332DC452D0D
:1024E00000F03581472D00F03281252DC7D163687A
:1024F000013B002B6360C0F2E18023685A1C22601C
:102500001D78252DA8D02146284600F02DFC013548
:10251000AFE79045B3DC01FB0858B8F13008AED402
:102520004AF0080A5B46BCE74C2D04D19BF80050EA
:102530004AF0120AC7E7682DC7D19BF800504AF04D
:10254000040AC0E7632D00F0C38000F3F5805B2D23
:1025500095D19BF8003000225E2B14BF0021012191
:102560004FF00105CDE91222CDE91422CDE9162262
:10257000CDE918220ABF9BF801300BF1010B0BF1DA
:10258000020B002B3FF47BAF5A111AA800EB82021A
:1025900052F8200C03F01F0305FA03F3034342F83B
:1025A000203C1BF8013B5D2BEBD1002940F0508310
:1025B0001AF0010700F0568300266368013B002BE8
:1025C0006360C0F2548323685A1C22601878002587
:1025D000A84517D0421C15D003460028B8BF00F10B
:1025E0001F031AAA5B11414202EB830301F01F0192
:1025F00053F8203C00F01F0258BF4A421341DB074A
:1026000000F13D83214600F0AFFB002F40F08F82A8
:1026100037708CE2702D00F0F4820BDC6E2D00F030
:10262000DF8200F3EA82692D7FF429AFCDF80080C4
:10263000002384E0752D00F00283782D00F00483E0
:10264000732D7FF41CAF4FF0FF3563680135013BFC
:10265000002B6360C0F2DB8223685A1C226018786A
:102660003B1893F8806016F00106EED1411C3FF450
:1026700001AF1AF0010908BF0F9BA84402BF1A1D41
:102680000F921E68454507D0421C05D03B1893F8B1
:102690008030DB0740F1BF82214600F065FBB9F1D5
:1026A000000F01D186F800901AF0010F02BF039BC2
:1026B00001330393029B2B441D46B7E6204600F0EE
:1026C0007FFB05461DE700BFD1400000CCCCCC0C01
:1026D0001AF0080F08BF4FF001081AF0010709BFF0
:1026E0000F9B00261A1D0F9208BF1E68B8F1000F3D
:1026F0003FF4C5AE029B08EB0305029B0133029336
:102700006368013B002B636010DB23685A1C226066
:1027100018780FB906F8010B029BAB42EDD1002FE0
:102720007FF484AE039B013303937FE6204600F0E1
:1027300047FB421CEDD19DE60A23CDF800804AF00C
:1027400020020FA92046FFF767FD0546EFE14FF095
:10275000FF356B1C06936368013B002B6360C0F27E
:10276000D98023685A1C226018783B1893F880306F
:10277000DB0700F1CD80461C3FF47CAEB8F1000FC2
:1027800000F0D2802B2800F0C9802D2840F0CC80AA
:102790004AF40076AB1C06936368013B002B636030
:1027A000C0F2BE8023685A1C2260187808F1FF38F6
:1027B000B3A3D3E90023CDE9082300230022CDE908
:1027C0000A230023C1461F460493069B03EB08051A
:1027D000A5EB0905B9F1000F40F0A880214600F0F3
:1027E000C3FADDE90A010A2303227B4393FBF2F3D8
:1027F000A7EB030842460E9300F0E6FCCDE90A0180
:10280000049801F0B2FA424600F0DEFC002FCDE958
:10281000060180F24E810FF27029D9E90089002269
:102820009B4B4046494600F0B7FF02460B4600204E
:10283000984901F0D7F80022954B01F033F8CDE923
:1028400004017F4200220023CDE90823FB0738D58D
:10285000DDE904234046494601F098F902460B465B
:10286000CDE90C01DDE90A0100F096FFDDE908235E
:10287000CDE90A01DDE90C0100F08EFFDDE9062358
:10288000CDE90801DDE9040100F086FFDDE9082358
:1028900001F07CF9DDE90623CDE90801404649460F
:1028A00000F07AFF00220B46CDE9062301F09AF8EA
:1028B000DDE9082301F06AF9012FCDE9080100F0F4
:1028C000FF8042464B464046494601F05FF9DDE94C
:1028D000042301F05BF902460B46DDE9040100F038
:1028E0005BFF4246CDE904014B464046494600F0B5
:1028F00053FF4FF000080B464246894601F072F83C
:10290000DDE9042301F042F97F10CDE904019DE7E0
:10291000069D1EE7204600F053FA26E7564639E7A3
:10292000204600F04DFA41E7564641E72E2810D1E7
:1029300071060ED446F040056368013B002B6360CE
:102940003ADB23685A1C2260187809F1FF392E46B9
:102950003BE7514B034493F880309A0630D5049BF3
:1029600046F480751A464D4B06F040069A42A0F197
:10297000300007DC0A2303FB02030493002EDBD0A4
:10298000013FD9E701F0F1F9DDE9082300F004FF88
:1029900002460B46DDE90A0101F0F8F80022CDE914
:1029A0000A01DDE908013E4B00F07CFFCDE908019A
:1029B000002EC1D10137BFE7204600F001FAC4E77D
:1029C00020F02002452A06F480737FF407AF002B25
:1029D0003FF404AF636826F4C076013B002B6360CC
:1029E0001EDB23685A1C226018782B281ED02D2845
:1029F0001AD009F1FF3901354FF000080A21264AA3
:102A0000A944A9EB0503002B04DD131893F88030CB
:102A10009B061CD432064CBFA7EB08074744DDE6F3
:102A2000204600F0CDF9E0E746F080066368023505
:102A3000013B002B636006DB23685A1C2260187878
:102A4000A9F10209D8E7204600F0BAF9F8E763686F
:102A50003038013B002B46F4807601FB080805F175
:102A60000105636004DB2368581C20601878C8E700
:102A7000204600F0A5F90A21074AC2E7AFF300801B
:102A80009A9999999999B93F000000009999C93F7D
:102A9000000014400000F03FD14000009F8601007C
:102AA00000002440CDE904234FF00008DFF808922D
:102AB000C8E64FF000024FF00003F3D1CDE9082340
:102AC000DDE90823DDE90A0101F060F8DDE906230C
:102AD00001F05CF811AA00F04CFB119F0E9B8046A0
:102AE0003B44B3F5806F89461F46119323DD6D4A41
:102AF00016F4007F18BF90464FF022024FF00007F7
:102B0000694B08BF9846694B1A60F3057FF5B7AC6F
:102B1000B00706F001092DD5B9F1000F07D10F9BC1
:102B20001A1D0F9219683A464346C1E90023002D49
:102B3000BFF6BAADEBE46FF47F739F420ADA00226E
:102B4000002301F01BF928B92222584B07461A60CE
:102B50008046DAE73A46B7054046494605D500F0D3
:102B600033FB074601F10048CFE700F02DFB074695
:102B70008846CAE712AA3846414600F0FAFA129B84
:102B80007E33002B129313DC00220023384641468B
:102B900001F0F4F8F8B922220020444B1A60B9F190
:102BA000000FC4D10F9B1A1D0F921B681860BEE75F
:102BB000FE2B10DD002200233846414601F045F986
:102BC0003B4B3C4A002814BF184610462222374B84
:102BD00000681A60E3E73846414601F05BF8DEE73B
:102BE0000F9B1AF0040F03F104020F921B68029A64
:102BF00014BF1A801A60154618E4CDF80080082327
:102C00009DE5CDF8008010232AF0060299E52046C4
:102C100000F0D6F824E5B9F1000F01D106F8010B58
:102C200063680135013B002B636004DB23685A1C99
:102C30002260187826E5204600F0C2F822E5CDF89B
:102C400000800A2352467CE5CDF80080102376E50B
:102C5000082312AA1168013B6FEA010142F8041B24
:102C6000F8D1A5E40F9B1A1D0F921E68A5E420461B
:102C700000F0A6F8411C7FF4AAACFFF7FBBB0FB92C
:102C800006F8010B63680135013B002B636004DB30
:102C900023685A1C226018789AE4204600F090F8C5
:102CA00096E400BF0000F0FF0000F07F3400001049
:102CB0000800001004000010000014400FB407B515
:102CC00004AA52F8041B04480192FFF77DFB03B0ED
:102CD0005DF804EB04B070474000001070B5C468A4
:102CE000A50708D0B2F5007F11D0B2F5806F04D0EF
:102CF000B2F5807F0BD0012008E0012300F1240110
:102D0000144301610160C361C460002070BD024DC5
:102D10005E1EAE42F4D9EEE7FEFFFF0010B5421C86
:102D20008307044616D1234654F8041BA1F1013051
:102D300020EA010010F0803FF5D011F0FF0F11D014
:102D400011F47F4F0CD011F47F0F14BF23460333CF
:102D5000981A04E010F8013B002BE1D1801A10BD55
:102D60000233F5E70133F3E7431C15D0CB6813F4C6
:102D700002220FD123F4012323F0400343F4012363
:102D8000CB608B6881F825008B634B68C1E9012219
:102D90004B6370474FF0FF30704701F082B838B591
:102DA0000D46044608B9012A05D029462046BDE84B
:102DB000384001F0A7B801F0ABF82870204638BDC4
:102DC000F8B5C36804461E0309D5426B23F40023FB
:102DD0004260826BC360826090F82500F8BD9D065A
:102DE00001D500F0A9F846F2C902E3681A40012AA9
:102DF0000FD00022626044F24002134276D023F4E6
:102E0000A04323F0400343F04003E3604FF0FF3062
:102E1000E4E7474A13420CD14FF4807000F0AAFA5D
:102E20004FF48073E361E368206143F40063206042
:102E3000E3606268E368501C0DDA43F48053C2F12A
:102E4000FF22E36002F57F022368FE3262605A1CB3
:102E500022601878C2E7D906676904D5DA033ED53F
:102E6000204600F05DF9E268E56942F48053E360D2
:102E7000D303266921684CD5E36A99422CBFC6EB7F
:102E80000106C6EB0306AD1B33D1204600F048F91E
:102E9000E569E6692169761B0E44E3682A4623F05A
:102EA0001003E36031463846FFF779FF0028BEBFC4
:102EB000E36820F0004043F48043A5EB0005B8BF71
:102EC000E3607319E362E3692363E36835BB23F4CA
:102ED000805343F04003E360C4E9006596E7A169CD
:102EE000384601F01FF80028BDDAE36843F080039C
:102EF0008BE7104B1340002BCBD1A16938463144EE
:102F000001F010F80028E368F0DB43F40033E360DD
:102F1000BFE7A369891B1944A161BEE7013D721C8B
:102F200043F4003365602260E360307856E700BF09
:102F3000000F010010000200C36810B523F0200349
:102F4000C3608269836A04469A420ED000F0E8F8B2
:102F5000E36823F4405323F0100343F01003E360CD
:102F6000A36AA3612369E3622360E36823F48043D7
:102F700023F04003E36010BDCB6870B523F400225A
:102F80000C46CA609906054602D52046FFF7D4FFD5
:102F9000D4E902365A1C10DAB0050ED4C3F1FF236F
:102FA00003F57F03FE33A360236846F490365A1C72
:102FB000E66022601D70E8B270BD41F28A023240C4
:102FC000022A07D0002346F08006A360E6604FF097
:102FD000FF30F1E74AF210033340B3F5004F0AD156
:102FE0000021204600F024FAE368990602D5204625
:102FF000FFF7A2FFE66846F4903316F4706FE360C3
:103000000ED1606900F078FF00B372051ED504F19F
:103010002403236123600123E36146F49233E360D8
:1030200013F4106F2168266926D0E36A99422CBFF9
:10303000C6EB0101C6EB0301B9B9731CE36223605F
:10304000E3695A1EA26023633570B4E74FF48070C1
:1030500000F090F94FF48073E268E36146F4943332
:103060001A4320612060E260DAE72246304600F031
:10307000CFF80028E1D0AAE74A1CEDB222600D701B
:10308000E26A216891422CBFC6EB0101C6EB020146
:10309000E2695B05226303D40A2D01D08A4209DC70
:1030A0000023E6622660A3602246304600F0B0F8B6
:1030B00000288CD128467FE770B50D46064610469D
:1030C000144600F067F92B78722B17D0772B18D0A5
:1030D000612B23D1082348F2020215F8011F2B2986
:1030E00012D0622915D01B07E260666104D5022266
:1030F0000021204600F09CF9204670BD00230122EB
:10310000EBE704230222E8E742F0030243F0020364
:10311000E3E742F0040243F00103DEE70024EBE7BB
:1031200038B5044605690168C36AC06820F4002206
:10313000E26000F08202022A02D04FF0FF3038BD78
:1031400010F48030FBD0994238BF19468D4208D127
:103150000020E368E56223F480332560A060E3602B
:10316000EDE72246491B284600F052F80028EFD030
:10317000E3E7F8B516460023002204460D4600F0AA
:10318000FDFD20B10023002000213360F8BDC5F310
:103190000A5320462946A3F2FE327BB9C5F3130336
:1031A000E70F03F4002547EA4303C3F31303640066
:1031B0000DB9013AF4E7204663F3130140F2FE3300
:1031C000326063F31E51E1E770B50023164600221A
:1031D00004460D4600F0D2FD10B10020002170BD64
:1031E00040F2FE73C5F30A5232449A422046294601
:1031F00005DD2222044B00201A600449EFE7002A73
:10320000EBDD62F31E51EAE7340000100000F07FAE
:103210002DE9F041D5688046EB020E461446576909
:1032200005D5384600F062FE45F01005A061124B4E
:103230002B408BB1A169384600F074FE002806DAF5
:10324000E3684FF0FF3043F08003E36011E025F4C2
:10325000003525F01005E56032464146384600F05D
:103260006DFE20F00043F61AA3691E44A6610028F3
:10327000E6D1BDE8F08100BF10000200F8B5304F84
:103280003C68002851D10020F8BD2368B3F1805F6D
:1032900039D1D4E9013252B11168B1F1805F06D160
:1032A000516803330B4463609368A360F1E7AB425A
:1032B00007DB734505DC20464FF0005340F80C3B1C
:1032C000E2E7634511D920464FF00051656040F8B0
:1032D0000C1B00EB8501A1604FF080545B1B033B8E
:1032E00040F82540C1E90132CEE762B9A0EB830086
:1032F00000F04CF90130C6D04FF0005304F10C003F
:10330000C4E90035C0E72646A468002CBDD10C30C6
:1033100000F03CF9431CB6D04FF000538460C0E984
:10332000003556B938600C30AEE7C31C9D08002646
:1033300005F10A0C05F1030EE7E7B060F3E700BF03
:103340003C000010A8B14FF0805340F80C3C50F8FE
:10335000042C72B11368B3F1805F0AD150F8083CB5
:10336000516803330B4440F8083C936840F8043C30
:10337000EDE7704710B5FFF781FF044628B9172223
:10338000034900F0DBFD00F0A5FD204610BD00BFA5
:10339000B9400000F0B5C46889B0A107054622D045
:1033A000220718D4D0E9046700F020F8384600F06E
:1033B00097FD230502D53046FFF7C4FFA40DA405F1
:1033C00014F1A54F07D12022296A684600F0B0FD0C
:1033D000684600F0D1F83C2200212846FFF7DDFCCA
:1033E000002009B0F0BD4FF0FF30FAE7F7B5044612
:1033F00098B103B0BDE8F04000F0E6B807FB046008
:1034000000F0E2F8002818BF4FF0FF350134019BAF
:10341000A342F3DC284603B0F0BD034B05461B680E
:103420003C270193014EF2E7544200004000001097
:103430002DE9F843C6683D4B044633400D4690469F
:103440001BB902273846BDE8F883D0F814904846E7
:1034500000F052FD07460028F3D1B8F1010F2CD03F
:10346000B8F1020F2ED0B8F1000FEAD1002DE8DB41
:10347000B00404D52368E26A9A4238BFE362A169C6
:10348000A9420EDC2368E26A934238BF13462269E0
:103490005818801AA84204DB206B01EB000CAC45E5
:1034A00034DC0023C4E9013346F02006A56226F48B
:1034B000032626F04006E660C4E7204600F038F810
:1034C0000544D3E7484600F011FDB0F1000CE26876
:1034D00004DA42F08002E2600127B3E7E36A1846AB
:1034E000A3691946236883422CBFC91809180B46E3
:1034F00021699206A3EB010303D5A26A9342B8BFE8
:1035000013466345ACBFED186544AFE76D1AB107CC
:1035100044BF281AA060F10744BF9B1AEB1A154458
:1035200048BF6360256026F02006C0E70300100056
:10353000C3689A0705D121220E4B4FF0FF301A6065
:10354000704703F020021B030AD512B1806A0138CC
:10355000704703688269006913441B1A581E70473C
:103560000AB1806A70470368826900691344181AB7
:10357000704700BF3400001010B50446FFF7CEFBC3
:1035800001462046BDE8104000F0C6BC70B50B4DAA
:103590002B680BB90A4B2B60C41C2E6824F0030463
:1035A0003444204600F030F810B92C60304670BD2D
:1035B0000C22044B4FF0FF361A60F7E7380000107A
:1035C0002402001034000010C36870B513F0030625
:1035D000044611D09B0611D5856AFFF7ADFCE36860
:1035E000204623F44053E360FFF79AFD002206468D
:1035F00029462046FFF71CFF304670BD83690568E9
:103600001D440369ED1AEAE7044B23B1984234BF25
:103610000020012070471846704700BF00000000DE
:103620005FF0000C30B51C0022D112006FD0914227
:1036300006D305460846002100F06FF804462846E8
:1036400000F06BF80A462146BDE830401CF0404FC0
:1036500008BF704703D54942404261F100015FEA6B
:103660008C0C38BF70475B42524263F100037047D5
:1036700042D41C0C04BF1B040CF1100C13F07F4F40
:1036800004BF1B020CF1080C13F0704F04BF1B01A8
:103690000CF1040C13F0404F04BF0CF1020C5FEA74
:1036A00083035CBF0CF1010C5B00CCF1200E22FA0D
:1036B0000EF4234302FA0CF200FA0CF520FA0EF095
:1036C00001FA0CF4204321FA0EF114461A4600F0D8
:1036D00024F8A4FB0023AA1A71EB03033CBF1B19B7
:1036E0000138CCF1200E22FA0CF203FA0EF4224338
:1036F00023FA0CF30021A7E7821A71EB03033CBF06
:1037000002460B464FF0000141F100009CE700200B
:103710000021BDE8304000F03DB80423B1EB122F8A
:1037200009D2090241EA10610002013B08BF70475B
:10373000B1EB122FF5D30018494134BF9142891AD9
:103740004041494134BF9142891A4041494134BF07
:103750009142891A4041494134BF9142891A4041FE
:10376000494134BF9142891A4041494134BF914295
:10377000891A4041494134BF9142891A4041494127
:1037800034BF9142891A4041A3F1010313F00F0F96
:10379000D2D170477047FFFF2DE9F04781EA03045B
:1037A000C1F30A5640F2FF7704F0004436B1BE423E
:1037B00004D0C3F30A550DB1BD4207D1490011F53C
:1037C000001F58D35BD00020344946E0C1F31301F9
:1037D0004FEAC22841F480113544A1FB08674FEA43
:1037E000525CB6463A46A8FB00674FF00009B8465F
:1037F0004CEAC32343F0004C00234FF0000AE0FBE7
:103800000C89ECFB012318EB0E0149EB0A0A12EBC1
:103810000A0843F10009B9F5801F41EA96011ED25A
:1038200018EB080649EB0900814646EAD178A5F570
:1038300080654900C80F18EB000249F10003B1F19F
:10384000004F40F2FD71164608BF22F001068D427E
:1038500008D830461C4304EB0551BDE8F087A5F2BB
:10386000FF35E7E7002D03DB44F0FF4444F4E004B8
:1038700000202146F1E75A0012F5001FF8D3084A4C
:103880005B0093429FD811424FF000009CD013423E
:103890009AD044F0FF4141F4E001DEE70000F87FF8
:1038A0000000E0FF2DE9F043C1F30A5540F2FF7C30
:1038B00081EA030635B1654504D0C3F30A540CB15F
:1038C000644506D1454A480090425BD900204449EE
:1038D00056E0A5EB040C440D44EAC12141F000453B
:1038E000510D41EAC32141F000494D454FEAC02442
:1038F0004FEAC22808BF444521BF630843EAC573A5
:103900006A081C4628BF15464FF000034FF03502E9
:103910004FEA580034BF0CF2FD3C0CF2FE3C40EA8A
:10392000C9704FEA59018D4208BF84424FEA4303F0
:1039300004D3241A65EB010543F0010324196D41FA
:10394000212A08BF1F46013AEDD18D4208BF8442AB
:1039500002D3013308BF013740F2FD718C4506F0F8
:10396000004204D802EB0C52D119184608E0BCF111
:10397000000FA4BF42F0FF4242F4E00200201146D3
:10398000BDE8F0835C0014F5001F9FD8194312EACC
:10399000410301D11249E8E710EA020506F00043AD
:1039A00002D119462846EBE7224005D143F0FF41FA
:1039B00041F4E0011046E3E714F5001F05D043F0A1
:1039C000FF41002041F4E001DAE710F5001F4FF05D
:1039D00000003FF47CAF1946D2E700BF0000E0FFD3
:1039E0000000F87F944691EA0302F0B405460E46C3
:1039F00006D503F100452B46F0BC624600F0C6B880
:103A0000994203D3604508D8994206D102F1004299
:103A1000564053402A466546944640F2FF71370DA2
:103A200027F40062180D8A42A7EB000400F0A08082
:103A3000944200F09980C6F31302C3F313031F2CC2
:103A400042F4801143F480134FD823FA04F2891A08
:103A500000F12002D21B93402CFA04F41C432C1BCF
:103A600038BF01F1FF311CFA02F3254603D05B4257
:103A7000651E04B9013911F4C01F54D1EA0FDB0FE0
:103A800042EA410243EA450352EA03046DD0BC1EF8
:103A9000510B24D0510C01BF190F41EA02121B0136
:103AA000043CD10C01BF990F41EA82029B00023C09
:103AB000110D02BFD90F41EA420204F1FF344FEA6F
:103AC000D67108BF5B00B1EBD42F4FF0000006BFEA
:103AD000184602EB045106F00041F0BC7047190E85
:103AE00041EA02221B02083CD2E7352C1BD8203CBD
:103AF00023FA04F2AA1AC4F1200003FA00F338BF33
:103B000001F1FF312CFA04F45FEA0C60154643EA38
:103B1000040306D043F0FF035B42551E1AB9013976
:103B200001E0002BF8D1CA0209D4013F7A050FD079
:103B3000EA0F42EA4101DA0F42EA45055B00002B39
:103B400021F480124FEA075405DB11192846C4E717
:103B500039051046C1E7013508BF0132B3F1004F06
:103B600008BF25F00105F0E75CB921462046B4E71F
:103B700033034FF0000001D00349AEE70CB902490E
:103B8000F4E73146E2E700BF0000F87F91EA030F57
:103B9000F0B405460E4605D503F100452B46F0BCB2
:103BA000FFF720BF994238BF1E4640F2FF7C3EBF60
:103BB0000B4615460246300D20F40067190D674587
:103BC000A0EB01045CD0BC4255D0C6F31307C3F38D
:103BD00013031F2C47F4801743F4801327D8203198
:103BE000091A23FA04FC22FA04F48B402343ED184B
:103BF000674428BF013702FA01F3BA022BD5013519
:103C000008BF01370BB925F00205360D360506EB66
:103C10005706730013F5001F2BBF421C31460020CE
:103C2000FF0734BF47EA55001105F0BC7047352C3B
:103C3000E3D8203C23FA04F16D18C4F1200103FA03
:103C400001F322FA04F428BF01372343120618BFF8
:103C500043F0FF03D1E7002B00F1FF3207DA013513
:103C600008BF0137B3F1004F08BF25F0010507EB8E
:103C700002512846D9E74CB906F000412046D4E766
:103C800033034FF0000001D00149CEE73146F0E7A1
:103C90000000F87F21F0004230B502F1474505F5FC
:103CA0007005B5F17E6F01F000440FD202F1484378
:103CB000420FC10042EAC30202EBD173B1F1004FDF
:103CC00008BF23F001031C43204630BD002DFBDB61
:103CD000490011F5001F94BF44F0FF44004CF3E786
:103CE0000000C07FCB0243EA505040F21E43A3EBDA
:103CF000115340F00040FF2B20FA03F011D913F4C8
:103D0000E06F01D14042704711F0804009D04B0074
:103D100013F5001F04D86FF0004000EBD17070471E
:103D20000020704720B903460246104619467047E6
:103D3000030C0CBF000401F18071030E0CBF0002E4
:103D400001F50001030F0CBF000101F58001830F95
:103D50000CBF800001F500110028ACBF400001F548
:103D6000801101EBE0234205DFE700F0004100286D
:103D700001F18041B8BF4042FFF7D4BF30B540EAFF
:103D800043054C001543254309D0994209D190427F
:103D900007D114F5001F8CBF0020012030BD012089
:103DA000FCE70020FAE730B5054651EA03000BD4E2
:103DB000580010F5001F1DD8994219D31AD1954209
:103DC0002CBF0020012030BD480010F5001F11D885
:103DD0005C0014F5001F0DD82C4314432043F2D08F
:103DE000994205D806D1954294BF00200120EAE708
:103DF0000120E8E70020E6E730B551EA03040BD4E0
:103E00005C0014F5001F1CD899421CD319D19042B4
:103E10008CBF0020012030BD4D0015F5001F10D8CB
:103E20005C0014F5001F0CD899420CD801D19042C7
:103E300009D22043104350EA05030CBF01200020A3
:103E4000E9E70020E7E70120E5E730B551EA0304A0
:103E50004FEA41050AD415F5001F1ED899421ED815
:103E60001BD1904234BF0020012030BD15F5001F4A
:103E700013D85C0014F5001F0FD899420FD304D15A
:103E800090428CBF00200120EFE72043104350EA0E
:103E900005030CBF01200020E7E70020E5E7012033
:103EA000E3E7034613F0030F0ED101F0FF0141EAEF
:103EB000012141EA0141043A24BF43F8041BB2F155
:103EC0000402F9D202F10402013A24BF03F8011BF3
:103ED000FAE7704718200149ABBE70472600020080
:103EE00003B469460220ABBE02B0704703B4694612
:103EF0000C20ABBE02B0704703B469460920ABBECC
:103F000002B070470FB469460620ABBE04B07047DC
:103F100007200021ABBE704703B469460E20ABBE3C
:103F200002B0704703B469460A20ABBE02B07047C6
:103F30000FB469460D20ABBE04B070470FB469469C
:103F40000520ABBE04B0704750696E203A2025644E
:103F50002C2076616C75652025640A0056657273A5
:103F6000696F6E2069732025780A0000667265719A
:103F700075656E63792069732025642C25640A00B9
:103F800053797374656D20636C6F636B2069732064
:103F900025640A000A0A506C6561736520456E74D9
:103FA0006572204C6F726120467265712072617477
:103FB0006528373234204D487A20746F20313034F0
:103FC00030293A200A000000256C64000A0A506C6F
:103FD0006561736520456E74657220547820506F5A
:103FE00077657228322D3137293A200A0000000007
:103FF000256400000A0A506C6561736520456E7483
:10400000657220537072656164696E6720666163D2
:10401000746F7228362D3132293A200A00000000D0
:104020005265636569766564207061636B657420B1
:10403000270000002563000027207769746820525C
:10404000535349200000000025640A0031200A0073
:104050002B002000307825637025640030582563DC
:1040600050256400307825632E252E2A6C6C7870DC
:10407000256400305825632E252E2A6C6C58502557
:1040800064002D0072007700286E756C6C2900307A
:10409000580030780030003031323334353637381C
:1040A00039414243444546003031323334353637A6
:1040B0003839616263646566002A2A2A205F437387
:1040C00079735F616C6C6F63206661696C65640A0B
:1040D00000000000000000000000000000000000E0
:1040E00000000000000000000000000000000000D0
:1040F00000000000000000000000000000000000C0
:1041000000000000000000000000000000000000AF
:10411000000000000000000000000000000000009F
:10412000000000000000000000000000000000008F
:10413000000000000000000000000000000000007F
:10414000000000000000000000000000000000006F
:10415000004040404040404040404141414141409A
:10416000404040404040404040404040404040404F
:1041700040050202020202020202020202020202DE
:1041800002202020202020202020200202020202E3
:10419000020290909090909010101010101010103B
:1041A0001010101010101010101010100202020247
:1041B000020288888888888808080808080808088B
:1041C0000808080808080808080808080202020287
:1041D000400000000000000000000000000000009F
:1041E00000000000000000000000000000000000CF
:1041F00000000000000000000000000000000000BF
:1042000000000000000000000000000000000000AE
:10421000000000000000000000000000000000009E
:10422000000000000000000000000000000000008E
:10423000000000000000000000000000000000007E
:10424000000000000000000000000000000000006E
:0842500000FFFFFF0800000061
:0C42580000E1F505000080FF0000807F01
:040000030000098967
:00000001FF
